:1000000078C00000A5C00000A3C00000A1C000008F
:100010009FC000009DC000009BC0000099C0000070
:1000200097C0000095C0000093C0000091C0000080
:100030008FC000008DC000008BC0000089C0000090
:1000400087C0000085C0000083C0000081C00000A0
:1000500083C300007DC000007BC00000D4C200004C
:1000600077C0000043C3000018C3000071C0000047
:100070006FC000006DC000006BC0000069C00000D0
:1000800067C0000065C0000063C0000061C00000E0
:100090005FC000005DC000005BC0000059C00000F0
:1000A00057C0000055C0000053C0000051C0000000
:1000B0004FC000004DC000004BC0000049C0000010
:1000C00047C0000045C0000043C0000041C0000020
:1000D0003FC000003DC000003BC0000039C0000030
:1000E00037C000006364696E6F70737578585B0089
:1000F000F40511241FBECFEFD1E2DEBFCDBF00E07B
:100100000CBF12E0A0E0B2E0E8EAF8E100E00BBFCB
:1001100002C007900D92A239B107D9F724E0A2E9F5
:10012000B2E001C01D92A631B207E1F710E0C9E7C5
:10013000D0E000E005C021970109802FFE0181D5A4
:10014000C837D10780E00807B1F710D30C94520CE0
:1001500057CF863308F0865390917B00282F287064
:10016000977F922B90937B008770806480937C00B4
:1001700080917A00806480937A0080917A0086FD75
:10018000FCCF809178002091790090E0922B089527
:100190003FB7F89480916D0390916E03A0916F0327
:1001A000B091700326B5A89B05C02F3F19F00196AA
:1001B000A11DB11D3FBFBA2FA92F982F8827820FED
:1001C000911DA11DB11DBC01CD0142E0660F771F3D
:1001D000881F991F4A95D1F70895CF92DF92EF9229
:1001E000FF920F931F93CF93DF936C017A018B01E2
:1001F000C0E0D0E0CE15DF0589F0D8016D918D010A
:10020000D601ED91FC910190F081E02DC601199588
:10021000892B11F47E0102C02196ECCFC701DF913A
:10022000CF911F910F91FF90EF90DF90CF900895A5
:10023000FC01918D828D981761F0828DDF01A80FEE
:10024000B11D5D968C91928D9F5F9F73928F90E010
:1002500008958FEF9FEF0895FC01918D828D98177F
:1002600031F0828DE80FF11D858D90E008958FEFBC
:100270009FEF0895FC01918D228D892F90E0805C85
:100280009F4F821B91098F739927089581E793E00F
:10029000F1DF21E0892B09F420E0822F0895FC0191
:1002A000848DDF01A80FB11DA35ABF4F2C91848DFF
:1002B00090E001968F739927848FA689B7892C9334
:1002C000A089B1898C9180648C93938D848D9813CF
:1002D00006C00288F389E02D80818F7D8083089598
:1002E000EF92FF920F931F93CF93DF93EC0181E086
:1002F000888F9B8D8C8D981305C0E889F989808142
:1003000085FD23C0F62E0B8D10E00F5F1F4F0F737E
:100310001127E02E8C8DE8120BC00FB607FCFACF28
:10032000E889F989808185FFF5CFCE01B8DFF2CF6A
:100330008B8DFE01E80FF11DE35AFF4FF0820B8F0A
:10034000EA89FB898081806207C0EE89FF8960832A
:10035000E889F98980818064808381E090E0DF9181
:10036000CF911F910F91FF90EF900895CF93DF935E
:10037000EC01888D8823C1F0EA89FB89808185FDA5
:1003800005C0A889B9898C9186FD0EC00FB607FCFF
:10039000F5CF808185FFF2CFA889B9898C9185FF3F
:1003A000EDCFCE017CDFE8CFDF91CF91089580E0E3
:1003B00090E0892B19F06ADF811125C080E090E080
:1003C000892B41F080E090E0892B21F00E94000011
:1003D00081111CC080E090E0892B41F080E090E02A
:1003E000892B21F00E940000811113C080E090E071
:1003F000892BA1F080E090E0892B81F00E94000021
:1004000081110AC008950E940000D8CF0E94000008
:10041000E1CF0E940000EACF0C9400000895CF9233
:10042000DF92EF92FF920F931F93CF93DF93CDB79D
:10043000DEB7C456D1090FB6F894DEBF0FBECDBFEC
:1004400020E030E047E050E0E0E0F0E060E070E025
:10045000A1E0B0E08BE0E82EF12C0BE316E0CD013B
:10046000042E01C0880F0A94EAF7982F9F6090939A
:100470000401909105018095807F9F70892B809366
:100480000501C701841B950B6D0102C0CC0CDD1C5E
:100490008A95E2F7C601C4B88095807F85B992B18C
:1004A000C0900E04D0900F04022E02C0D594C794C1
:1004B0000A94E2F78C2D8F70907F892B82B99091EE
:1004C0000501C0901004D0901104022E02C0D594F2
:1004D000C7940A94E2F78C2D8F70907F892B8093BC
:1004E0000501D0900B018091120490911304022E0B
:1004F00002C0959587950A94E2F782959295907F30
:100500009827807F98279D2D9F70892B80930B01C2
:10051000D4B28091140490911504022E02C09595D6
:1005200087950A94E2F78F709927880F991F9D2D60
:10053000917E892B84BBC8010197F1F780B1C82E49
:10054000D12C80EFC826C601929582958F7089279D
:100550009F708927022E02C0880F991F0A94E2F724
:10056000682B792B8091090190E0809590958F7090
:100570009927022E02C0880F991F0A94E2F7E82BF0
:10058000F92B415051092C5F3F4F4330510509F081
:1005900066CF1F921F92FF93EF931F921F927F933C
:1005A0006F9380E192E09F938F938E010F5F1F4FB7
:1005B0001F930F9359D30FB6F894DEBF0FBECDBF74
:1005C000C801CC59DF4F0FB6F894DEBF0FBECDBFC8
:1005D000DF91CF911F910F91FF90EF90DF90CF901F
:1005E0000895009761F0FC0101900020E9F7319730
:1005F000AF01481B590BBC0181E793E0EECD80E0D1
:1006000090E0089526D31F920F920FB60F921124F7
:100610002F933F938F939F93AF93BF9380916903E1
:1006200090916A03A0916B03B0916C0330916803C1
:1006300023E0230F2D3720F40196A11DB11D05C025
:1006400026E8230F0296A11DB11D20936803809315
:10065000690390936A03A0936B03B0936C0380913A
:100660006D0390916E03A0916F03B091700301969A
:10067000A11DB11D80936D0390936E03A0936F0332
:10068000B0937003BF91AF919F918F913F912F9144
:100690000F900FBE0F901F9018951F920F920FB6DC
:1006A0000F9211240BB60F922F933F934F935F93AA
:1006B0006F937F938F939F93AF93BF93EF93FF932A
:1006C00081E793E0ECDDFF91EF91BF91AF919F91B6
:1006D0008F917F916F915F914F913F912F910F90EB
:1006E0000BBE0F900FBE0F901F9018951F920F9288
:1006F0000FB60F9211240BB60F922F938F939F93E7
:10070000EF93FF93E0918103F09182038081E09168
:100710008703F091880382FD12C0908180918A0343
:100720008F5F8F7320918B03821751F0E0918A03C2
:10073000F0E0EF58FC4F958F80938A0301C08081D1
:10074000FF91EF919F918F912F910F900BBE0F9082
:100750000FBE0F901F9018951F920F920FB60F9219
:1007600011240F900FBE0F901F901895CF93DF9319
:1007700000D000D0CDB7DEB7789484B5826084BD58
:1007800084B5816084BD85B5826085BD85B5816095
:1007900085BD80916E00816080936E001092810013
:1007A00080918100826080938100809181008160CE
:1007B000809381008091800081608093800080918F
:1007C000B10084608093B1008091B000816080931B
:1007D000B00080919100826080939100809191009F
:1007E000816080939100809190008160809390005F
:1007F0008091A10082608093A1008091A10081601E
:100800008093A1008091A00081608093A0008091DE
:100810002101826080932101809121018160809378
:1008200021018091200181608093200180917A00D4
:10083000846080937A0080917A00826080937A004D
:1008400080917A00816080937A0080917A0080683C
:1008500080937A001092C1008EB18C6F8EB9809116
:100860000401806F8093040181B18F6081B980EFB2
:1008700082B99FE097B9209104012F602093040171
:1008800088B924B1206F24B990930B0180930A0199
:100890009AB98BB983B38E6183BB809180008160EC
:1008A0008093800080918100886080938100809196
:1008B0006F00816080936F00E0918103F09182036B
:1008C00082E08083E0917D03F0917E031082E091CD
:1008D0007F03F091800380E1808310928903E0918F
:1008E0008503F091860386E08083E0918303F09195
:1008F0008403808180618083E0918303F09184038D
:10090000808188608083E0918303F09184038081FB
:1009100080688083E0918303F091840380818F7DE0
:10092000808308E512E03BE8E32E32E0F32E81E716
:1009300093E0A0DCC0906603D0906703892BF1F0B0
:1009400081E793E075DCF601E256FD4F80832FEFDF
:10095000C21AD20AD0926703C092660319DC4B0117
:100960005C0116DCDC01CB0188199909AA09BB09D5
:10097000883E9340A105B105D0F6F3CFCD2809F408
:1009800047C0A6E9B2E0BF93AF93A8E9B2E0BF9336
:10099000AF93AAE9B2E0BF93AF93ACE9B2E0BF93E3
:1009A000AF93A6E2B2E0BF93AF93AEE9B2E0BF93DC
:1009B000AF9389D161E972E08EE992E04ED18091E6
:1009C0009C0290919D0290930F0480930E0480915D
:1009D0009A0290919B02909311048093100480914D
:1009E000980290919902909313048093120480913D
:1009F000960290919702909315048093140410929C
:100A00006703109266030FB6F894DEBF0FBECDBF2A
:100A100006DD2FB7F8948091690390916A03A09145
:100A20006B03B0916C032FBF4091920250919302DF
:100A30006091940270919502841B950BA60BB70BE5
:100A4000C397A105B10508F4CDC0809115048F931B
:100A5000809114048F93809113048F9380911204DA
:100A60008F93809111048F93809110048F938091C4
:100A70000F048F9380910E048F93A3E3B2E0BF9392
:100A8000AF93AEE9B2E0BF93AF93EED08EE992E0C0
:100A9000A8DDC5DCA6DD84E45CDB782E692E83E46A
:100AA00058DB982E892E82E454DBB82EA92E87E3DA
:100AB00050DBD82EC92E86E34CDB6F927F928F924B
:100AC0009F92AF92BF92CF92DF929F938F93A4E4B5
:100AD000B2E0BF93AF93AEE9B2E0BF93AF93C4D09F
:100AE0008EE992E07EDD81E434DBBC0180E46D833D
:100AF0007E832FDBAC018FE34B835C832ADB9C017D
:100B00008EE329833A8325DB382E292E8DE321DBE2
:100B1000582E492E8CE31DDB782E692E8BE319DBD2
:100B2000982E892E8AE315DBB82EA92E89E311DBD6
:100B3000D82EC92E88E30DDB7E817F936D816F9364
:100B40005C815F934B814F933A813F9329812F932F
:100B50002F923F924F925F926F927F928F929F92CD
:100B6000AF92BF92CF92DF929F938F931F930F9379
:100B7000AEE9B2E0BF93AF9377D00FB6F894DEBF83
:100B80000FBECDBF8EE992E02CDD8CB190E0ACEFD2
:100B90008A2796958795969587959F938F93FF9231
:100BA000EF92AEE9B2E0BF93AF935ED08EE992E0F0
:100BB00018DD2FB7F8948091690390916A03A09192
:100BC0006B03B0916C032FBF8093920290939302BA
:100BD000A0939402B09395020F900F900F900F90F6
:100BE0000F900F90E4DBA3CEE1E7F3E013821282D3
:100BF00088EE93E0A0E0B0E084839583A683B7837A
:100C000084E092E09183808385EC90E095878487EF
:100C100084EC90E09787868780EC90E0918B808BC6
:100C200081EC90E0938B828B82EC90E0958B848BAF
:100C300086EC90E0978B868B118E128E138E148E1D
:100C40000895EE0FFF1F881F8BBF0790F691E02DD0
:100C5000199481E090E0F89425C6FB01DC01019035
:100C60000D920020E1F708950F931F93CF93DF9328
:100C7000CDB7DEB72E970FB6F894DEBF0FBECDBF4F
:100C80000E891F8986E08C831A8309838FEF9FE783
:100C90009E838D83AE01465E5F4F688D798DCE0158
:100CA000019632D02F813885F801E20FF31F1082B0
:100CB0002E960FB6F894DEBF0FBECDBFDF91CF9159
:100CC0001F910F910895CF93DF93CDB7DEB72E9785
:100CD0000FB6F894DEBF0FBECDBF85E08C838C8944
:100CE0009D899A838983AE01485E5F4F6E897F89B3
:100CF000CE0101969ED32E960FB6F894DEBF0FBE9E
:100D0000CDBFDF91CF9108952F923F924F925F9286
:100D10006F927F928F929F92AF92BF92CF92DF920B
:100D2000EF92FF920F931F93CF93DF93CDB7DEB770
:100D30002C970FB6F894DEBF0FBECDBF7C016B01C0
:100D40008A01FC0117821682838181FFB0C1CE0126
:100D500001964C01F7019381F60193FD859193FF74
:100D600081916F01882309F49EC1853239F493FD86
:100D7000859193FF81916F01853221F4B70190E055
:100D8000DFD4E8CF512C312C20E02032A0F48B327C
:100D900069F030F4803259F0833269F420612CC05C
:100DA0008D3239F0803339F4216026C0226024600E
:100DB00023C0286021C027FD27C030ED380F3A300E
:100DC00078F426FF06C0FAE05F9E300D1124532E02
:100DD00013C08AE0389E300D1124332E20620CC0DF
:100DE0008E3221F426FD5FC1206406C08C3611F4DA
:100DF000206802C0883641F4F60193FD859193FF87
:100E000081916F018111C1CF982F9F7D95549330AF
:100E100028F40C5F1F4FFFE3F9830DC0833631F0D8
:100E2000833771F0833509F057C021C0F801808104
:100E300089830E5F1F4F44244394512C540114C0E6
:100E40003801F2E06F0E711CF801A080B18026FF1E
:100E500003C0652D70E002C06FEF7FEFC5012C87E6
:100E600026D42C0183012C852F77222E16C0380121
:100E7000F2E06F0E711CF801A080B18026FF03C064
:100E8000652D70E002C06FEF7FEFC5012C8704D4A1
:100E90002C012C852068222E830123FC19C0832D70
:100EA00090E048165906A0F4B70180E290E048D4DB
:100EB0003A94F5CFF50127FC859127FE81915F01DA
:100EC000B70190E03DD431103A94F1E04F1A510847
:100ED0004114510479F7DEC0843611F0893631F5BA
:100EE000F80127FF07C060817181828193810C5FC7
:100EF0001F4F08C060817181072E000C880B990B71
:100F00000E5F1F4F2F76722E97FF09C09095809528
:100F1000709561957F4F8F4F9F4F2068722E2AE00A
:100F200030E0A4015ED4A82EA81843C0853729F468
:100F30002F7EB22E2AE030E025C0F22FF97FBF2E9F
:100F40008F36C1F018F4883579F0ADC0803719F0CC
:100F5000883721F0A8C02F2F2061B22EB4FE0DC01B
:100F60008B2D8460B82E09C024FF0AC09F2F966085
:100F7000B92E06C028E030E005C020E130E002C014
:100F800020E132E0F801B7FE07C060817181828103
:100F900093810C5F1F4F06C06081718180E090E0FB
:100FA0000E5F1F4FA4011DD4A82EA818FB2DFF779C
:100FB0007F2E76FE0BC0372D3E7FA51450F474FEB5
:100FC0000AC072FC08C0372D3E7E05C0BA2C372DF2
:100FD00003C0BA2C01C0B52C34FF0DC0FE01EA0DD0
:100FE000F11D8081803311F4397E09C032FF06C0C3
:100FF000B394B39404C0832F867809F0B39433FD7F
:1010000012C030FF06C05A2CB31418F4530C5B18EE
:10101000B32CB31460F4B70180E290E03C8790D326
:10102000B3943C85F6CFB31410F43B1801C0312CB7
:1010300034FF11C0B70180E390E03C8781D33C8549
:1010400032FF16C031FD03C088E790E002C088E59A
:1010500090E0B7010CC0832F867851F031FF02C0B9
:101060008BE201C080E237FD8DE2B70190E068D3EA
:10107000A51430F4B70180E390E062D35A94F8CF1E
:10108000AA94F401EA0DF11D8081B70190E058D3D4
:10109000A110F6CF332009F45DCEB70180E290E0D5
:1010A0004FD33A94F7CFF7018681978102C08FEF33
:1010B0009FEF2C960FB6F894DEBF0FBECDBFDF9129
:1010C000CF911F910F91FF90EF90DF90CF90BF9045
:1010D000AF909F908F907F906F905F904F903F90D8
:1010E0002F90089520FD09C0FC0123FD05C022FFBB
:1010F00002C07383628351834083089544FD10C00E
:1011000046FD10C0DB01FC01AA0FBB1FEE1FFF1F35
:101110001094D1F76A0F7B1F8E1F9F1F31E003C011
:1011200033E001C034E0660F771F881F991F3150EC
:10113000D1F7620F711D811D911D08950F931F93AB
:10114000CF93DF938C01C801BDD2EC0197FD06C09F
:1011500090D2892BC1F7B801CE012AD3CE01DF91FD
:10116000CF911F910F9108958F929F92AF92BF924E
:10117000CF92DF92EF92FF920F931F93CF93DF9363
:101180001F92CDB7DEB78C01C62E7A0129839AD281
:10119000AC01552729814B32510521F04D325105C3
:1011A00061F42068CA94C11002C080E06FC0C80119
:1011B000298388D2298197FDF8CF322F3D7FD32E06
:1011C000322F307339F5803329F5BB24BA94BC0C27
:1011D00009F449C0C801298375D2298197FD43C00C
:1011E000382F3F7D383561F48D2D8264D82ECA9416
:1011F000CA94CC20C1F1C80165D297FF0BC033C09F
:1012000026FF04C02D2D2260D22E03C03D2D326159
:10121000D32ECB2C812C912C540120ED280F28307B
:1012200078F0D4FE03C0B801C3D21AC02A3040F00F
:10123000D6FEF9CF2F7D3FEE320F3630A0F7275084
:101240004D2DC501B4015ADF4B015C018D2D82602B
:10125000D82ECA94CC2051F0C80134D297FFDDCFEC
:10126000D1FC04C0A2CF812C912C5401D7FE08C020
:10127000B094A09490948094811C911CA11CB11CEA
:101280002D2DB501A401C7012DDF81E00F90DF9165
:10129000CF911F910F91FF90EF90DF90CF90BF9073
:1012A000AF909F908F9008956F927F928F929F92B0
:1012B000AF92BF92CF92DF92EF92FF920F931F9364
:1012C000CF93DF93CDB7DEB7A1970FB6F894DEBF0B
:1012D0000FBECDBF5C017A01CE0101966C0180E2A8
:1012E000F60111928A95E9F7F501838040E050E01C
:1012F000912C712C70E0A1E0B0E0F90183FC8591A4
:1013000083FE81918F01982F9F01811103C080E09E
:1013100090E07AC08E3519F44115510549F1E72F57
:10132000F0E0E417F5073CF48D3559F18D3219F4EE
:10133000772001F103C0711001C0982E892F869586
:10134000869586958601080F111D892F87703D01AE
:1013500001C0660C8A95EAF7F801808186298083AE
:10136000991559F0991510F49F5FE8CF9150E6CF89
:1013700071E004C07724739401C0712C4F5F5F4FFC
:10138000BCCF772019F08E8180628E83711103C0EB
:101390009924939416C0F6019E012F5D3F4F8081E2
:1013A00080958193E217F307D1F7F2CFE114F104AE
:1013B00029F0F7018083C70101967C016150912CCF
:1013C000E9F0C50169A37ED169A197FD15C0282F59
:1013D000269526952695F601E20FF11D208130E035
:1013E000AC014770552702C0359527954A95E2F71D
:1013F00020FDDCCFB501DCD1911089CFE114F104DF
:1014000011F0F7011082C801A1960FB6F894DEBF63
:101410000FBECDBFDF91CF911F910F91FF90EF9045
:10142000DF90CF90BF90AF909F908F907F906F9004
:1014300008954F925F927F928F929F92AF92BF9248
:10144000CF92DF92EF92FF920F931F93CF93DF9390
:101450001F92CDB7DEB76C012B015A01FC01178238
:101460001682712CF601F380F201F3FC8591F3FEF4
:101470008191382F2F01882309F4E5C090E039834A
:10148000F8D03981892B19F0C60158DEEBCF3532FF
:1014900041F4F201F3FC3591F3FE31912F01353225
:1014A00059F4C60139830ED1398197FDCAC0381766
:1014B000C9F2B6017DD1C7C03A3239F4F3FC359197
:1014C000F3FE31912F0151E001C050E0420110E0E4
:1014D00020ED230F2A3088F45260612F70E080E005
:1014E00090E040E259830ADE162FF401F3FC3591B7
:1014F000F3FE31914F015981EBCF052F232F2401AA
:1015000051FF03C0111102C09EC01FEF383619F001
:101510003C3659F011C0F401F3FC2591F3FE219102
:101520002F01283649F4052F08600460F201F3FC0E
:101530002591F3FE21912F01222309F484C0622F0B
:1015400070E084EE90E029839CD02981892B09F4F6
:101550007AC000FD07C0F501E080F180C501029668
:101560005C0102C0E12CF12C2E3649F4F6014681D3
:10157000578160E070E0202FC701B4DD73CF2336C0
:1015800089F401FF11E0C6019DD097FD5AC0E11416
:10159000F10429F0F7018083C70101967C01115005
:1015A00091F74BC02B3551F49201A701612FC60171
:1015B0007BDE2C01892B09F040C03AC0C60129838B
:1015C000BDDD298197FD3DC02F3641F128F4243639
:1015D00019F1293631F124C0233769F02537E1F0BC
:1015E0001FC0E114F10429F0F7018082C7010196C0
:1015F0007C01115059F0C60165D04C0197FD06C021
:1016000038D0892B71F3B601C401D2D0E114F104B2
:10161000A1F0F701108211C0006203C0006101C097
:101620000064202FA701612FC6019EDD811105C036
:10163000F6018381807329F406C000FD13CF7394F3
:1016400011CF772019F0872D90E002C08FEF9FEF28
:101650000F90DF91CF911F910F91FF90EF90DF904E
:10166000CF90BF90AF909F908F907F905F904F9062
:101670000895911114C1803219F089508550D0F726
:101680000895FC010590061621F00020D9F7C0014D
:1016900008953197CF010895FC0105906150704085
:1016A0000110D8F7809590958E0F9F1F0895FC012B
:1016B0006150704001900110D8F7809590958E0F81
:1016C0009F1F0895CF93DF93EC012B8120FF33C040
:1016D00026FF0AC02F7B2B838E819F8101969F83DB
:1016E0008E838A8190E029C022FF0FC0E881F981B2
:1016F0008081082E000C990B009719F420622B832F
:101700001AC03196F983E8830EC0EA85FB851995E6
:1017100097FF09C02B81019611F080E201C080E1A2
:10172000822B8B8308C02E813F812F5F3F4F3F83E9
:101730002E83992702C08FEF9FEFDF91CF910895FD
:101740000F931F93CF93DF93FB01238121FD03C0F0
:101750008FEF9FEF28C022FF16C04681578124815A
:1017600035814217530744F4A081B1819D012F5F59
:101770003F4F318320838C93268137812F5F3F4FEA
:101780003783268310C0EB01092F182F0084F185C1
:10179000E02D1995892BE1F68E819F8101969F831B
:1017A0008E83812F902FDF91CF911F910F910895FC
:1017B000FB01238120FF12C026FD10C08F3F3FEFA9
:1017C000930761F082832F7D2064238326813781F4
:1017D0002150310937832683992708958FEF9FEF92
:1017E0000895FA01AA27283051F1203181F1E894B7
:1017F0006F936E7F6E5F7F4F8F4F9F4FAF4FB1E004
:101800003ED0B4E03CD0670F781F891F9A1FA11DFE
:10181000680F791F8A1F911DA11D6A0F711D811DFF
:10182000911DA11D20D009F468943F912AE0269FC4
:1018300011243019305D3193DEF6CF010895462F23
:101840004770405D4193B3E00FD0C9F7F6CF462F04
:101850004F70405D4A3318F0495D31FD405241936D
:1018600002D0A9F7EACFB4E0A6959795879577952A
:101870006795BA95C9F700976105710508959B01B1
:10188000AC010A2E06945795479537952795BA953A
:10189000C9F7620F731F841F951FA01D0895992714
:0818A00088270895F894FFCF9A
:1018A800000000007001ED003A0118012C01B6019A
:1018B8006B6579626F6172642025582C25582C2538
:1018C800582C2558200025782C25782C25782C256F
:1018D800780A004C45442025782025782025782052
:1018E800257820007376722025642C25642C2564C5
:1018F8002C25642C256420004A44312025642C259D
:1019080064204A44322025642C2564204A4433202C
:1019180025642C2564204A44342025642C25642021
:101928004A44352025642C2564200042542025781B
:021938000A00A3
:00000001FF
